:020000040800F2
:10080000800F002075090008DB090008DB090008DB
:1008100000000000000000000000000000000000D8
:10082000000000000000000000000000DB090008DC
:100830000000000000000000DB0900089D0D00081A
:10084000D9090008D9090008D9090008D909000800
:10085000D9090008D9090008D9090008D9090008F0
:1008600000000000D9090008D9090008D9090008CA
:10087000D9090008D9090008D9090008D9090008D0
:10088000D90900080000000000000000D909000894
:1008900000000000D9090008D9090008D90900089A
:1008A00000000000D9090008D9090008DD0E000881
:1008B000190F0008D9090008D9090008D90900084A
:1008C000054B0648033310B51B1A062B03D9044BFE
:1008D000002B00D0984710BD2801002028010020DF
:1008E000000000000648074910B5091A8910CB0F0F
:1008F0005918491003D0044B002B00D0984710BD65
:1009000028010020280100200000000010B5074C3D
:100910002378002B09D1FFF7D3FF054B002B02D022
:10092000044800E000BF0123237010BD280100200F
:100930000000000088160008094B10B5002B03D0FA
:100940000849094800E000BF08480368002B02D1AD
:10095000FFF7C8FF10BD064B002BF9D09847F7E70B
:10096000000000002C01002088160008280100204B
:1009700000000000002370B510481149114C1A18EE
:100980008A4203D2E55C01331570F8E700210E4B73
:100990000E4A934202D219700133FAE70C4B00253C
:1009A0001E000C4CE41AA410A54204DAAB00F35864
:1009B00098470135F8E700F00DFAFEE7C000002087
:1009C00028010020B0160008280100202002002085
:1009D00094160008A0160008FEE7FEE7044B1A680C
:1009E000002A01D1034A1A6018684118196070473B
:1009F0004401002020020020014B18687047C046C7
:100A0000480100208023F7B5A025274ADB01116C9F
:100A1000ED0519431164126C244C13400193019BA2
:100A20006A6A234B87001340C0226B626B6A5204D0
:100A300013436B62E2681F4B39001340E3601E48AA
:100A400000F0A6FB390006001C4800F0A1FB642161
:100A50000B007343C01A0001323000F099FB0023F1
:100A60002C22C0B236018619A66063612361E36857
:100A7000C62113438022E360E36892011343104AC6
:100A8000E360890053581B021B0A535080231B0547
:100A900013602A680B4B1340A0222B602B68920531
:100AA00013432B60F7BDC0460010024000380140E0
:100AB000FFFF0FF0FFDFFFFF808D5B000046C323C9
:100AC00000E100E0FFFFFFC3802210B5054C216864
:100AD000044B1142FBD04022586019681142FCD0EF
:100AE00010BDC046003801408023F7B5264A9B025E
:100AF000D16BA0251943D163D26BED051340FF22C2
:100B00000193019B2B6A214C93432B622B6A663A1B
:100B100013432B62E2681E4B87001340E3603900E9
:100B20001C4800F035FB390006001B4800F030FB84
:100B300064210B007343C01A0001323000F028FB1F
:100B400000232C22C0B236018619A660636123619E
:100B5000E368C72113438022FF20E360E36892012A
:100B60001343E3600D4B89005A5882435A50802248
:100B700052051A600F222B6893432B602B68053AAD
:100B800013432B60F7BDC0460010024000440040F4
:100B9000FFDFFFFF808D5B000046C32300E100E024
:100BA000802210B5054C2168044B1142FBD0402235
:100BB000586019681142FCD010BDC0460044004086
:100BC000F7B503252C004E00B440E4431540B54072
:100BD000076801932740076007683D4305601700D9
:100BE0001025AF433D00013D012D13D8089F8568B6
:100BF000B74025408560856812093D438560012521
:100C00002B008B4015408D4047689F4347604768E5
:100C10003D434560019BC268B3401440C460C26854
:100C20001343C360F7BD000007B50B0022498200E3
:100C3000505822495258142B30D009D8042B1BD0BD
:100C4000102B25D0002B36D191B20322009230E038
:100C50001C2B29D007D8182B2DD1032391B2009338
:100C60000222002325E0282B0CD0482B23D103237C
:100C700091B20093023B09E003230093002391B259
:100C80001A0016E0032391B20093013B002210E00A
:100C9000032391B20093012200230AE0032391B2BF
:100CA00000931122002304E0032391B20093122247
:100CB0000023FFF785FF07BDCC140008601500086E
:100CC0000A4A80000A4B002907D0115818580123FE
:100CD00083408A6913438B6106E011581858012339
:100CE00083408A6A13438B627047C046CC14000865
:100CF000601500081FB50122214B596B1143596340
:100D0000596B0A400192019A0222596B11435963AF
:100D1000596B0A400292029A2022596B114359637F
:100D2000596B0A400392039A164A59681268D20412
:100D3000D00C0A0C80211204024309020A435A60B3
:100D40008022D20019681142FCD08024A405C02260
:100D50000D49200000F0C0FA0C4A946062B60C4BBA
:100D60000C4959600021996007311960136A1B0210
:100D70001B0A13628022084B12061A601FBDC04670
:100D800000100240100FFF1F0008000800ED00E0F7
:100D900010E000E0BF5D000000E100E0024A1368DF
:100DA000013313607047C0464801002010B5054C60
:100DB0000549200000F088F9044A0549200000F0A8
:100DC000DFF910BD4C01002025160008C0000020EE
:100DD0003B1000087FB5FFF78DFF9621164C890167
:100DE000200000F0B7F810210800FFF71DFF0021D8
:100DF0001020FFF765FF200000F026F80028FADD3C
:100E0000210001A800F0F4F80C4D01A9280000F021
:100E10006EF901A800F011F90949280000F09AF9CB
:100E2000061E01D00121E3E70649280000F092F9EF
:100E30000028E0D03100DBE7580100204C01002001
:100E4000F4150008FB1500084269136C506C403320
:100E5000181A044B184004D5402301385B4218434C
:100E6000013070473F00008043695A6C196C914211
:100E700001D0985C01E001204042704741694B6C11
:100E80000A6C9A420BD0074AC85C0133134004D560
:100E90004022013B5242134301334B6401E00120E5
:100EA000404270473F00008043695A6C1A647047A3
:100EB0000369084A10B5934203D10800FFF704FE06
:100EC00005E0054A934202D10800FFF769FE0120C0
:100ED00010BDC04600380140004400400B4B10B527
:100EE0001A68920611D50A4A5968106C094B441CBD
:100EF000C9B2234004D54024013B6442234301335B
:100F0000546CA34201D01154136410BD0038014049
:100F1000880100203F0000800B4B10B51A68920634
:100F200011D50A4A5968106C094B441CC9B22340B8
:100F300004D54024013B644223430133546CA34253
:100F400001D01154136410BD00440040D0010020B2
:100F50003F0000800369074A10B5934203D108009F
:100F6000FFF750FD05E0044A934202D10800FFF765
:100F7000BBFD10BD0038014000440040002064214A
:100F800010B5094B094C0A4A1C610A4C08321A6018
:100F9000586099605C61084B1A60084A58601A6191
:100FA000074A99605A6110BD58010020003801407D
:100FB0000416000888010020700100200044004051
:100FC000D001002010B50400FFF716FDE060236893
:100FD0002000DB689847002808DAFFF70DFDE3687A
:100FE000C01AA3689842F2D30120404210BD00000D
:100FF00070B50D000749040000F066F82800FFF7FF
:10100000E1FF002804DBC1B2200000F099F8F5E709
:10101000200070BD25160008F8B507000C0000255B
:101020008E18B44207D03B6821781B683800984777
:1010300001342D18F5E72800F8BD10B5040000684C
:1010400000F040F9200010BD10B504000068002831
:1010500001D000F037F900232360A360636010BD66
:1010600070B504000D000068013100F0DBF9031ECB
:1010700001D0012028C470BD036810B50400002B06
:1010800002D043688B4209D22000FFF7E9FF002815
:1010900005D0A368002B01D122681370012010BD78
:1010A00070B50E00110004001500FFF7E5FF0028E1
:1010B00003D12000FFF7C8FF04E0A56031002068DD
:1010C00000F0C4F9200070BD002370B504000D1EAF
:1010D0000360436083609D4207D0080000F0BEF9C2
:1010E000290002002000FFF7DBFF200070BD10B5D3
:1010F0000B00041E8C4208D00968002903D09A68AE
:10110000FFF7CEFF01E0FFF79FFF200010BDF8B50D
:1011100004000F1E01D1002610E00126002A0DD088
:101120008368D5182900FFF7A7FF0028F3D02368AC
:10113000A2683900981800F089F9A5603000F8BD60
:1011400007B5002201AB19705A7019000132FFF780
:10115000DEFF0EBD836810B5002B04D101200029ED
:101160000DD00B7808E0002902D103681B7803E05A
:10117000006800F061F9030058425841C0B210BD48
:101180000B0010B50100180000F08EF810BD000033
:10119000002243088B4274D303098B425FD3030AB6
:1011A0008B4244D3030B8B4228D3030C8B420DD3C9
:1011B000FF22090212BA030C8B4202D31212090257
:1011C00065D0030B8B4219D300E0090AC30B8B4295
:1011D00001D3CB03C01A5241830B8B4201D38B0343
:1011E000C01A5241430B8B4201D34B03C01A5241E8
:1011F000030B8B4201D30B03C01A5241C30A8B422B
:1012000001D3CB02C01A5241830A8B4201D38B0215
:10121000C01A5241430A8B4201D34B02C01A5241B9
:10122000030A8B4201D30B02C01A5241CDD2C3092B
:101230008B4201D3CB01C01A524183098B4201D3A7
:101240008B01C01A524143098B4201D34B01C01A92
:10125000524103098B4201D30B01C01A5241C3080A
:101260008B4201D3CB00C01A524183088B4201D379
:101270008B00C01A524143088B4201D34B00C01A65
:101280005241411A00D20146524110467047FFE7D1
:1012900001B5002000F006F802BDC0460029F7D0D5
:1012A00076E770477047C04670B5054C05001300DF
:1012B000201E04D00A000220290000E000BF70BDFB
:1012C0000000000010B5034B0100186800F00EF894
:1012D00010BDC04624010020002310B59A4203D05F
:1012E000CC5CC4540133F9E710BD000030B50029CF
:1012F0003ED004390B68002B00DAC9181D4A136868
:101300001400002B02D14B60116031E08B420DD9EB
:101310000A688818834203D118685B6882180A60DB
:101320004B60216024E08A4203D813005A68002AE7
:10133000F9D11D685C198C420BD1096869185818DD
:101340001960824214D110685268411819605A60BD
:101350000EE08C4202D90C23036009E008680C18E7
:10136000A24203D114685268201808604A6059608C
:1013700030BDC0461C020020032370B5CD1C9D4328
:10138000083506000C2D01D20C2505E0002D03DAEE
:101390000C230020336040E0A942F9D81F4B1C68A1
:1013A0001A002100002913D00B685B1B0DD40B2BF6
:1013B00002D90B60CC181EE08C4202D16368136026
:1013C0001AE04B6863600C0016E00C004968E9E71E
:1013D000134C2368002B03D13000FFF7FFFA206085
:1013E00029003000FFF7FAFA431CD1D00323C41CB4
:1013F0009C43A0420AD12560200007220B30231D08
:101400009043C31A09D05A42E25006E0211A300034
:10141000FFF7E4FA431CEED1BAE770BD1C020020CE
:101420001802002010B5034B0A000100186800F0F4
:101430001CF810BD2401002002780B78002A03D08C
:10144000013001319A42F7D0D01A7047031C0A7854
:1014500001311A700133002AF9D170470023C25CB0
:101460000133002AFBD1581E7047F8B506000C0066
:101470001500002904D11100FFF77EFF040018E0D9
:10148000002A03D1FFF732FF2C0012E000F013F81E
:1014900085420ED929003000FFF76EFF071E07D0E6
:1014A00021002A00FFF718FF21003000FFF71EFF80
:1014B0003C002000F8BD0B1F1A68101F002A04DA38
:1014C000891804390B68D0180438704700000050A0
:1014D00000000050000000500000005000000050CC
:1014E00000000050000000500000005000000050BC
:1014F00000000050000000500000005000000050AC
:101500000000005000000050000000500004005097
:10151000000400500004005000040050000400507B
:10152000000400500004005000040050000400506B
:10153000000400500004005000040050000400505B
:10154000000400500004005000040050001400503B
:1015500000140050001400500014005000140050FB
:101560000000000001000000020000000300000075
:101570000400000005000000060000000700000055
:1015800008000000090000000A0000000B00000035
:101590000C0000000D0000000E0000000F00000015
:1015A0000000000001000000020000000300000035
:1015B0000400000005000000060000000700000015
:1015C00008000000090000000A0000000B000000F5
:1015D0000C0000000D0000000E0000000F000000D5
:1015E00000000000010000000200000003000000F5
:1015F000040000004C45445F4F4E004C45445F4F93
:10160000464600000000000000000000B10E000887
:1016100019100008490E00087D0E0008690E000828
:10162000A90E0008430000000000000000000000B8
:1016300000000000000000000000000000000000AA
:10164000000000000000000000000000000000009A
:10165000000000000000000000000000000000008A
:10166000000000000000000000000000000000007A
:10167000000000000000000000000000000000006A
:101680000000000000000000F8B5C046F8BC08BC2F
:101690009E46704739090008AD0D00087D0F00080F
:1016A000F8B5C046F8BC08BC9E4670470D09000856
:1016B000000000000000000028160008481600087E
:1016C0006816000800000000000000000000000094
:1016D00000000000241600080000000000000000C8
:1016E00000000000000000000000000000000000FA
:1016F00000000000000000000000000000000000EA
:1017000000000000000000000000000000000000D9
:0817100000000000C4000020ED
:040000050800097571
:00000001FF
